:10000000801A002011950100DD520000E15200002D
:10001000A70A02020002000004180FAC3066970025
:1000200000000000000000000000000000000000D0
:1000300000000000EC910300000000000000000040
:100040000000000000000000FFFFFFFFFFFFFFFFB8
:10005000FFFFFFFFFFFFFFFFFFFFFFFFFFFFFFFFB0
:1000600000E00F000000000000000000FFFFFFFFA5
:10007000FFFFFFFF1C000000000000000000000068
:10008000000000000000000010430020104300208A
:10009000801A0020DCE80300085A03002011002029
:0C00A000E810002000001000000000002C
:10020000801A002011950100DD520000E15200002B
:10021000E9520000E5520000ED5200000D9501008A
:100220000D9501000D9501000D9501000D95010042
:10023000F15200000D9501000D9501000D95010092
:10024000A16C0000852A0300D15500006453000012
:1002500029240300F12A0300912A0300A92A03009C
:10026000892A0300D5630000A9640000C58200004C
:10027000690301006453000064530000F12800008A
:100280006453000064530000CD6400006453000018
:100290006453000064530000645300006453000082
:1002A0006453000064530000645300006453000072
:1002B000F52A03008D2A0300256A0000352B030070
:1002C0006453000009F50200645300006453000009
:1002D0006453000064530000645300006453000042
:1002E0006453000064530000645300006453000032
:1002F0006453000064530000645300006453000022
:0C03000064530000645300000D950100E0
:10030C00F8B500BFF8BC08BC9E467047F8B500BFF6
:10031C00F8BC08BC9E46704710B5054C237833B921
:10032C00044B13B10448AFF300800123237010BDBC
:10033C000C2100200000000048E2030008B5034B2C
:10034C001BB103490348AFF3008008BD0000000057
:10035C001021002048E20300154B002B08BF134B63
:10036C009D46A3F5803A00218B460F461348144A4C
:10037C00121A35F030FB0F4B002B00D098470E4B68
:10038C00002B00D098470020002104000D000D48E0
:10039C00002802D00C48AFF3008035F0EDFA2000B5
:1003AC00290010F06BFA35F0D3FA00BF00000800FA
:1003BC00801A002000000000000000000C2100202A
:1003CC0010430020000000000000000070471FB523
:1003DC000123009300220DF10F03062112F002FD00
:1003EC0020B99DF80F3023B104F0D4FF05B05DF8AF
:1003FC0004FB04F0E1FFF9E730B5154D85B000249E
:10040C002C7011F0A7F9022817D100900DF10E03F2
:10041C0022460321012012F0E5FCBDF80E0048B184
:10042C00204604F0DBFF4FF47A61284620F0AAFB4B
:10043C0005B030BD04F0AEFFFAE70DF07FFD054BC3
:10044C000090054A0549012013F02EFFF0E700BF8C
:10045C003C300020357B03004C5C0300515C0300F6
:10046C0008B511F077F902280CD1074B00220120B6
:10047C001A7009F001FD05490246BDE8084001204B
:10048C0013F012BF08BD00BF34300020CB5C03005A
:10049C00912808B504D1002004F08EFF002008BD7F
:1004AC009028FBD1002004F075FF024820F05EFB81
:1004BC00F4E700BF34300020014820F057BB00BFE8
:1004CC003C30002013B50E4B009004460D4A0E49EB
:1004DC00012013F0E9FE8CB116F058FE024618B15B
:1004EC000A49012013F0E0FE00200CF045FF084BF8
:1004FC000090084A0449012013F0D6FE02B010BD4A
:10050C00915C03004C5C0300515C03009A5C03009B
:10051C00357B0300C65C030007B500230093044A37
:10052C00044B0549012013F0BFFE03B05DF804FB3A
:10053C00805C0300915C0300515C0300FFF747BF34
:10054C0009B9FFF744BF704711B9024820F00EBB40
:10055C00704700BF3430002038B5C37B05460BB163
:10056C00832038BDC47C2CB902F014FA20B9EB7B83
:10057C00002BF5D18120F4E72046F2E7C37B10B5C0
:10058C0004460BB1832010BDC37C012B13D003D3C5
:10059C00402B13D08120F6E7017D82898B1C9A4277
:1005AC0018D3806813F0CCF90BF068FCA0B9E37B8E
:1005BC00002BE7D1EEE70BF079FCF7E7037D81899F
:1005CC009A1C914206D38268591CD05C515C16F07F
:1005DC00C9FFEBE78020D6E70020D4E7F8B5C37B52
:1005EC0004460BB18320F8BDC37C052B29D8DFE86A
:1005FC0003F0032A35414C4F057D8289AB1C9A428E
:10060C0001D28020EFE7ADB22946806813F098F94B
:10061C000646A068A7890235284413F0A9F9284496
:10062C0001308742EDD32946A289A06813F08EF9D8
:10063C00014630460AF018FF002848D1E37B002B16
:10064C00D0D18120CFE7017D82898B1C9A42D8D3EF
:10065C00806813F075F90AF027FFEDE7037D8189B7
:10066C005A1C9142CDD38268591C1144D05C0AF0BB
:10067C004BFFE1E7017D82898B1C9A42C1D38068D4
:10068C0013F05EF90AF0C2FFD6E70BF01BF8D3E7C4
:10069C00057D8289AB1C9A42B3D3ADB229468068E2
:1006AC0013F04EF90646A068A7890235284413F0CA
:1006BC005FF9284401308742A3D32946A289A06858
:1006CC0013F044F9014630460BF044F8B4E700202F
:1006DC0089E7C37B2DE9F7430446002B40F03E81AC
:1006EC00C37C042B00F0B7800BD8012B00F0888062
:1006FC003FD3022B00F09480032B00F0A1808120CB
:10070C003DE0402B00F0DA800FD8052B00F0B380D1
:10071C00062BF4D1017D82898B1C9A422ED38068E2
:10072C0013F00EF90EF04CFE61E0412B00F0058148
:10073C00422BE4D1037D8289D91D8A421ED39DB2FE
:10074C008068691CC65C13F0FBF8EB1C0746A068BC
:10075C00A28910F80380291D13F0F2F80635A3685E
:10076C005B5D0093424603463946304617F0E2F98A
:10077C003DE0057D8289AB1C9A4203D2802003B0F8
:10078C00BDE8F083ADB22946806813F0D9F8A28990
:10079C00E91C8A42064605F10203EFD3881C82420B
:1007AC00ECD3A068C75C13F0CBF88046A068B4F813
:1007BC000C900535284413F0DBF8284401308145B2
:1007CC00DCD32946A289A06813F0C0F88146A06842
:1007DC00284413F0CDF801300544A06810FA85F5D3
:1007EC0000954B464246394630460FF001FA002838
:1007FC0040F0B680E37B002B14BF83208120BEE742
:10080C00057D8289EB1C9A42B8D3ADB2294680682B
:10081C0013F096F80235A368595D0FF0CFFAE6E7AE
:10082C00057D8289EB1C9A42A8D3ADB2294680681B
:10083C0013F086F80235A368595D0EF0EBFCD6E791
:10084C00017D82898B1C9A4298D3806813F078F8CA
:10085C000EF04EFDCBE7057D8289EB1C9A428DD3C1
:10086C00ADB22946806813F06BF80235A368595D68
:10087C000EF0F2FEBBE7057D8289AB1C9A42FFF4B9
:10088C007DAFADB22946806813F05AF8A289E91CF5
:10089C008A42064605F10203FFF470AFA068C75CFC
:1008AC008B1C9A4207D313F04BF80246394630465C
:1008BC000EF0AAFF9BE74FF6FF72F7E7057D8289E2
:1008CC00AB1C9A42FFF45AAFADB22946806813F0C4
:1008DC0037F8A289E91C8A42064605F10203FFF4A7
:1008EC004DAF881C8242FFF449AFA068C75C13F07F
:1008FC0027F88046A068B4F80C900535284413F00E
:10090C0037F8284401308145FFF438AFA289A0683C
:10091C00294613F01BF88146A068284413F028F8E8
:10092C0001300544A06810FA85F500954B46424607
:10093C003946304617F0E6F859E7057D8289EB1CFD
:10094C009A42FFF41BAFADB22946806812F0F8FF53
:10095C000235A368595D17F0E5F848E783200EE7E8
:10096C0000200CE7F8B5C37B04460BB18320F8BD1F
:10097C00C37C022B21D004D8ABB1012B1AD081201F
:10098C00F5E7412B1CD0422B1DD0402BF7D1037D1A
:10099C0081899A1C91422DD38268591CD05C515C80
:1009AC0016F02AFF01E00DF009FC28BBE37B002BBD
:1009BC00E5D0DBE70DF018FCF7E70DF02BFCF4E7C6
:1009CC0016F060FFF1E7037D8289591D8A4211D32D
:1009DC009DB28068691CC65C12F0B2FFA289074602
:1009EC00E91CA06812F0ACFF39460246304616F0FE
:1009FC0089FFDAE78020BAE70020B8E7C37BF7B5B8
:100A0C000446002B40F0D180C37C072B00F2CF8032
:100A1C00DFE813F008003700590085009A00A900A0
:100A2C00B500C800037D8289591C8A42C0F0C18080
:100A3C009DB2691C881C8242C0F0BB80A068C75C58
:100A4C0012F07EFFEB1CA6895A1C964222BFA268AC
:100A5C00D25C2B1D014603F1010038BFFF228642F8
:100A6C002ABFA068FF23C35C38460BF0E3FF0028C5
:100A7C0040F0A180E37B002B14BF8320812003B0C6
:100A8C00F0BD067D8589731C9D42C0F09280B7B283
:100A9C00BA1C954207F10103C0F08B808068C15CE1
:100AAC0013460132954224BFC25CFB1C03F10107C3
:100ABC0038BFFF22BD4228BFC35C805D38BFFF2317
:100ACC000BF0D5FFD3E7037D8289591C8A4270D382
:100ADC009DB2A91C8A4205F101076AD3881C824287
:100AEC0067D3A068C65CC75D12F02AFF291DB4F855
:100AFC000CC04B1C9C4522BFA3685B5C691D024665
:100B0C0001F1010038BFFF2384452ABFA068FF21F3
:100B1C00415C0091304639460BF0C1FFA7E7027DDE
:100B2C008189501C814293B222BFA0680133805C42
:100B3C0003F1010238BFFF2091422ABFA268FF21B6
:100B4C00D15C0BF0C8FF92E7017D8289CB1C9A42E5
:100B5C002FD38068455C013112F0F2FE0146284625
:100B6C000BF076FF83E7037D81899A1C914220D399
:100B7C008268591CD05C515C0BF085FF77E7037DD4
:100B8C008289191D8A4214D3806899B2C55C4B1CAA
:100B9C000231C65C12F0D4FE3146024628460BF0F8
:100BAC008CFF64E70BF09FFF61E7832067E78120F0
:100BBC0065E7802063E7002061E72DE9F04FC37BF8
:100BCC008FB004461BB183200FB0BDE8F08FC37CFF
:100BDC000B2B4DD8DFE813F00C00550030014C0006
:100BEC004C004C0057014C004C004C00C301D70189
:100BFC00037D8289581C824224BFA06810F80380B0
:100C0C0099B234BF4FF0FF08013118F0070509D134
:100C1C000F1DBA422FD3A06812F08CFEB9B2064653
:100C2C00FF2711E0022D25D101F108039A42C0F0F3
:100C3C00DF81A5680D4499B24B1C9A421BD3A26864
:100C4C004FF0FF36575C99B2A2890B1D9A4215D30F
:100C5C00A06812F06FFE00903B462A463146404693
:100C6C0009F094FB002840F0C181E37B002BAAD152
:100C7C008120A9E700254FF0FF36D1E74FF0FF3078
:100C8C00E9E7037D82899DB203339A4218D3294642
:100C9C00806812F052FE0335064616F0070712D193
:100CAC00A28905F104084245C0F0AD802946A06830
:100CBC0012F040FE1FFA88F583464FF0FF0A18E049
:100CCC004FF0FF36E9E7022F40F09C80A28905F136
:100CDC0008039A42C0F08E81A7682F449DB26B1C0A
:100CEC009A42C0F09080A2684FF0FF3B12F805A02A
:100CFC009DB216F0100340F0898016F0600903D005
:100D0C00B9F1600F40F07B81A28905F108039A428A
:100D1C00C0F07281A168294409919DB2B9F1000F0C
:100D2C0003D0B9F1600F40F06B81AB1C9A42C0F05C
:100D3C006C812946A0680A9312F002FE0A9B804639
:100D4C009DB2B9F1200F02D0B9F1400F62D1A28946
:100D5C00AB1C9A420A935DD32946A06812F0F0FDB1
:100D6C000A9B81469DB206F01803082B55D1A28927
:100D7C006B1C9A4251D3A268525D0A929DB27104C7
:100D8C004ED5A2892B1D9A424AD32946A0680C93B2
:100D9C0012F0D0FD0C9B0B909DB216F4004344D086
:100DAC00A28905F110039A423ED3A2682A440C9200
:100DBC009DB2F2033BD5A289AB1C9A4237D329468C
:100DCC00A0680D9312F0BCFD0D9B9DB2B30331D501
:100DDC00A2896B1C9A422DD3A3685B5DCDF804806D
:100DEC00CDE906030C9B05930B9B04930A9BCDE961
:100DFC000293099B00933A4653465946304609F0F4
:100E0C00C7FA2FE700274FF0FF3B56E700234FF6BA
:100E1C00FF7809934FF6FF79A5E7FF230A93AEE716
:100E2C004FF0FF330B93B8E700230C93C1E74FF659
:100E3C00FF70CBE7FF23D1E7017D8289481C8242FA
:100E4C0024BFA068455C8BB234BFFF250133A907D2
:100E5C0014D59E1CB24211D31946A06812F070FD35
:100E6C00B3B20146EA060CD5A0895A1C904208D3AD
:100E7C00A268D25C284609F045FAF3E64FF6FF71FA
:100E8C00F0E7FF22F6E7037D82898068591C8A42CD
:100E9C009DB228BF013505F102062CBF10F8038066
:100EAC004FF0FF08B24233D3294612F049FDB5B2D8
:100EBC008146A289A0686B1C9A422ABF10F805A033
:100ECC004FF0FF0A9DB218F0070624D105F1040B70
:100EDC005A4530D3294612F02DFD1FFA8BF50746E3
:100EEC004FF0FF0BA289A0680A92691C8A4223BFAB
:100EFC00435D09938DB2FF23284438BF099312F048
:100F0C0037FD0A9A28440130824217D280205BE6D2
:100F1C004FF6FF79CDE7022E0CD105F108039A426A
:100F2C0071D346199DB210F805B00135ADB24FF032
:100F3C00FF37D7E700264FF0FF37D1E7A289A0682B
:100F4C00294612F003FD099B0390CDE901B30096ED
:100F5C003B4652464946404609F0B0FA82E6007DCF
:100F6C00A289031D9A42D1D386B2A568F31CB21C88
:100F7C00711C0436EB5CAA5C695C285C35440095FA
:100F8C0009F05AFB6EE6037D8289591C8A42BDD357
:100F9C008068C65C9FB216F01F0507F1010104D1F1
:100FAC0012F0C8FC791D002206E0022D1BD142185C
:100FBC0007F109014FF0FF3006F00703022B01BFC8
:100FCC00A3684D1C5B5CA9B206F0180518BFFF2383
:100FDC00082D0ABFA568FF256D5C009501463046BB
:100FEC0009F018FC3EE64FF0FF30DCE70020EBE5A3
:100FFC00002521E6002772E6002309938EE609936B
:10100C004FF6FF789DE600268DE7B9F1200F4FF6DD
:10101C00FF787FF499AEFDE62DE9F043C37B85B0F4
:10102C000446002B40F0A482C37C062B00F05C81AC
:10103C003AD8022B00F0EB8007D8002B00F08F8001
:10104C00012B00F0C48081208FE0042B067D858964
:10105C0000F02A8140F20481731C9D42C0F0848010
:10106C00B7B207F1010C0CF101039D427CD3FA1CC1
:10107C00954207F1020377D38068F91CC25C4B1CC4
:10108C009D4224BF435C391D01F1010738BFFF238A
:10109C00BD4228BF455C10F80C10805D38BFFF25A1
:1010AC00009502F0ABF989E00A2B00F0AA8139D83F
:1010BC00082B017D828900F07B8140F244818B1CDE
:1010CC009A4251D38DB22946806812F039FCA91C82
:1010DC00A2898B1C9A42074646D3A06812F030FCBA
:1010EC00291DA2898B1C9A4280463DD3A06812F020
:1010FC0027FCA91DA6894B1C9E4222BFA3685B5CE2
:10110C00E91D024601F1010038BFFF2386422ABFC8
:10111C00A068FF21415C009138B20FFA88F102F00F
:10112C0085FA4BE04B2B00F097814C2B00F0D481CF
:10113C00472B88D1027D8189501C814293B222BFFA
:10114C00A0680133805C03F1010238BFFF2091429B
:10115C002ABFA268FF21D15C02F00AFC2EE0037DBD
:10116C008289591C8A4203D2802005B0BDE8F083E5
:10117C009DB2A91C8A4205F10107F5D3881C824255
:10118C00F2D3A068C65CC75D12F0DAFB291DB4F877
:10119C000CC04B1C9C4522BFA3685B5C691D0246BE
:1011AC0001F1010038BFFF2384452ABFA068FF214D
:1011BC00415C00913046394602F012F8002840F0AC
:1011CC00D981E37B002B14BF83208120CDE7067DE2
:1011DC008589731C9D42C7D3B7B2BA1C954207F1DF
:1011EC000103C1D38068C15C13460132954224BF10
:1011FC00C25CFB1C03F1010738BFFF22BD4228BFB4
:10120C00C35C805D38BFFF2301F036FFD6E7077D56
:10121C0085897B1C9D42A7D3BEB206F1010C0CF153
:10122C0001039D42A0D3F21C954206F102039BD30D
:10123C008068F11CC25C4B1C9D4224BF435C311D79
:10124C0001F1010638BFFF23B54228BF455C10F8F9
:10125C000C10C05D38BFFF25009502F073F8ADE7A8
:10126C00731C9D4280D3B7B2791C8B1C9D42FFF43A
:10127C007BAF80682A46865D12F062FBFB1CA58959
:10128C005A1C954222BFA268D25C3B1D014603F159
:10129C00010038BFFF2285422ABFA068FF23C35C30
:1012AC00304602F005F889E7731C9D42FFF45CAFF1
:1012BC00B7B2BA1C954207F10103FFF455AF806831
:1012CC00C15C13460132954224BFC25CFB1C03F186
:1012DC00010738BFFF22BD4228BFC35C805D38BF09
:1012EC00FF2301F02BFF69E7037D8289591C8A4299
:1012FC00FFF43AAF9DB2A91C8A4205F10107FFF435
:10130C0033AF881C8242FFF42FAFA068C65CC75D68
:10131C0012F016FB291DB4F80CC04B1C9C4522BFC7
:10132C00A3685B5C691D024601F1010038BFFF2315
:10133C0084452ABFA068FF21415C009130463946A4
:10134C0001F02CFE3AE78B1C9A42FFF40DAF8DB2E4
:10135C002946806812F0F4FAA91CA2898B1C9A42C7
:10136C000746FFF401AFA06812F0EAFA291DA28922
:10137C008B1C9A428046FFF4F7AEA06812F0E0FA9C
:10138C00A91DA6894B1C9E4222BFA3685B5CE91D6C
:10139C00024601F1010038BFFF2386422ABFA06834
:1013AC00FF21415C00913846414602F07FF805E789
:1013BC008B1C9A42FFF4D8AE8DB22946806812F08D
:1013CC00BFFAA91CA2898B1C9A420746FFF4CCAE2B
:1013DC00A06812F0B5FA2B1DA6895A1C964222BFA2
:1013EC00A268D25C6B1D01B203F1010038BFFF2271
:1013FC0086422ABFA068FF23C35C38B202F0AAF869
:10140C00DCE6057D8289AB1C9A42FFF4ADAEADB231
:10141C002946806812F094FAA91CA2898B1C9A4266
:10142C000746FFF4A1AEA06812F08AFA2B1DA6891C
:10143C005A1C964222BFA268D25C6B1D014603F176
:10144C00010038BFFF2286422ABFA068FF23C35C7D
:10145C00384602F065F9B1E6037D8289591C8A424F
:10146C00FFF482AE9DB2691C881C8242FFF47CAEF4
:10147C00A068C65C12F064FAE91CA2898B1C9A4223
:10148C000746FFF471AEA06812F05AFA691DA289E2
:10149C008B1C9A428046FFF467AEA06812F050FA9B
:1014AC00EA1DB4F80CC0511C8C4522BFA168895CA4
:1014BC0005F10802034602F1010038BFFF21844503
:1014CC0026BFA068825CFF22CDE90012304642465E
:1014DC00394602F03FF971E6037D8289591C8A4234
:1014EC00FFF442AE9DB2691C881C8242FFF43CAEF4
:1014FC00A068C65C12F024FAE91CA2898B1C9A42E3
:10150C000746FFF431AEA06812F01AFA691DA289E1
:10151C008B1C9A428046FFF427AEA06812F010FA9A
:10152C00E91DA2898B1C9A428146FFF41DAEA0686E
:10153C0012F006FA05F10902A389511C8B4222BF55
:10154C00A168895C05F10A0202F1010538BFFF218F
:10155C00AB4224BFA3689A5C009038BFFF22CDE950
:10156C0001124B4642463946304602F059F925E6FF
:10157C008320FAE50020F8E5C37B2DE9F041044611
:10158C0013B18320BDE8F081C37C1BB1012B32D099
:10159C008120F7E7057D8289AB1C9A4201D280201D
:1015AC00F0E7ADB22946806812F0CAF9A289E91CAD
:1015BC008A42074605F10203F1D3A06810F80380B4
:1015CC004B1C9A4224BF465C291D01F1020338BF13
:1015DC00FF269A420CD312F0B3F903463246414629
:1015EC0038460AF047FAD8B9E37B002BC9D1CFE7CC
:1015FC004FF6FF73F2E7057D82892B1D9A42CED3FD
:10160C00ADB22946806812F09BF9A91C0646A28946
:10161C00A06812F095F9014630460AF053FAE2E759
:10162C000020AFE7C37B10B504460BB1832010BD7F
:10163C00C37C412B03D0422B0FD08120F7E7037DD5
:10164C0081895A1C914212D38268D05C16F064FBDB
:10165C0078B9E37B002BE9D1EFE7037D81895A1C34
:10166C00914204D38268D05C16F09EFBF0E7802098
:10167C00DDE70020DBE738B5C37B002B437D14BFCF
:10168C008325C325012B044628D10368028A598877
:10169C00587910F0A5FD08B323685B88212B18D06E
:1016AC0005D8062B0FD0082B0DD0284638BD40F29C
:1016BC000642934207D0B3F5A06FF6D12046BDE8A1
:1016CC003840FFF759BFE37B002B14BF83258125DE
:1016DC00EBE72046BDE83840FFF76FBA637D002B7F
:1016EC00E3D12368228A5988587910F070FD0028BC
:1016FC00DBD023685B88052B29D009D8032B1CD0A1
:10170C0020D8002BD1D12046BDE83840FEF724BFAD
:10171C00082B21D006D8062BC7D12046BDE838406F
:10172C00FFF720B9B3F5407F1BD0B3F5805FBCD178
:10173C002046BDE83840FFF775BF2046BDE838406D
:10174C00FEF71CBF2046BDE83840FEF747BF2046D9
:10175C00BDE83840FEF7BDBF2046BDE83840FFF776
:10176C004DB92046BDE83840FFF756BC7047012004
:10177C007047012070470120704770470020704768
:10178C0000207047002070470020704700207047F1
:10179C00002070470120704701207047B52070472A
:1017AC0000207047002070470020704700207047D1
:1017BC0070470020704770470020704784207047A6
:1017CC007047704770477047704770477047704755
:1017DC000020704770477047704700207047704773
:1017EC0000F060BD0320704700207047034B1B685E
:1017FC001878012808BF0220704700BF1829002064
:10180C0000207047034A03460120C3E9032000224D
:10181C001A7070470100FEFF704770477047002038
:10182C0070470020704700207047002070477047B9
:10183C000020704770470020704700207047002040
:10184C007047002070470020704700207047002030
:10185C007047002070477047B520704700207047D4
:10186C000020704770470020704770477047B520C4
:10187C00704770477047704700207047704770473B
:10188C00094A0023FF21137082F8783082F8653002
:10189C0082F8773082F8793082F87A1082F87B30CF
:1018AC00024A1360704700BF2821002044300020FA
:1018BC00F8B50D468C680A6828490646202004F0C5
:1018CC0010FB6B687BB92649202004F00AFB202012
:1018DC000EF000FB2349202004F018FB2020BDE86B
:1018EC00F8400EF0F7BA002EF1D01F4D1F4E204FCE
:1018FC00013C14F8013F23B91A49202004F006FBDF
:10190C00E5E7752B18D0762B18D0772B18D0732BC6
:10191C0018D0722B18D0712B18D0622B18D06E2BBC
:10192C0018D02A2B18D01349134A212B18BF114653
:10193C00202004F0D6FADCE72946F9E73146F7E730
:10194C003946F5E70D49F3E70D49F1E70D49EFE7A6
:10195C000D49EDE70D49EBE70D49E9E7BAB703008F
:10196C00875D0300385D0300455D0300395D0300AE
:10197C00505D0300915D03008E5D03005C5D030010
:10198C00665D0300715D03007C5D0300865D0300F2
:10199C008B5D0300F0B5214A92F87B30184452FA63
:1019AC0080F01F4B90F865C090F866501F78A5EB3F
:1019BC000C050026EDB23046F4B2A54225D90CEB4D
:1019CC00060313445B7811B10CB92D2B17D0782B6F
:1019DC001FD0582B05D108B137240AE0013C012C4B
:1019EC0014D9602B17D8402BF6D83A2B34BF30249F
:1019FC0000241B1BDBB29F4203D900FB07300136CE
:101A0C00DAE7052382F879300020F0BD102700209A
:101A1C00F5E70028E2D05724EBE700BF282100208F
:101A2C00881A0020FFF72CBF034B93F8770093F82C
:101A3C007B30C01AC0B27047282100200021FFF76C
:101A4C00A9BF000010B50A4B93F87B20024453FA4F
:101A5C0082F292F8652013445C78A4F12D0359426C
:101A6C005941FFF797FF2D2C08BF404210BD00BF16
:101A7C002821002030B50C4A92F87B300344C04337
:101A8C00DBB2C00F39B1D51895F8664095F86550A2
:101A9C00641B241A0C7042FA83F393F865301844D3
:101AAC00024B184430BD00BF282100202921002002
:101ABC00F7B50E460DF1070115461C46FFF7DAFF88
:101ACC009DF80730AB42074688BF8DF807501CB114
:101ADC009DF807402C1BE4B222463046002100F052
:101AEC00B5FB30199DF80720394600F053FB9DF8E3
:101AFC00070003B0F0BD38B508220C460123FFF7F0
:101B0C00D7FF04F10803621E043413F8011D12F808
:101B1C00015F1D70A3421170F7D138BD38B5014675
:101B2C0005460120FFF7C4FED5E901436CB91C46FC
:101B3C00084D236863B12946202004F0D2F92146D0
:101B4C000020FFF7B5FE0C34F3E71B786E2BEFD0BB
:101B5C0038BD00BFD6B9030008B50449202004F0F5
:101B6C00C0F92020BDE808400EF0B4B9F95C0300C0
:101B7C0038B5FFF7F1FF064D002461190C346319D9
:101B8C0053F80C3C03B938BD0020FFF791FEF4E785
:101B9C00A46E03002DE9F84F1F4B204D53F8202065
:101BAC001F49202004F09DF92B681BB9BDE8F84FA4
:101BBC00FFF7DEBF1B4FDFF874A0FFF7CDFF002649
:101BCC00B94697F87B30F4B2013B9C4204DB2868A1
:101BDC00BDE8F84FFFF7A2BF47FA86F34C4493F8E1
:101BEC0065800023C84494F8662094F86510521A56
:101BFC0003F1010BD2B2DBB2934205D30A49202088
:101C0C0004F06FF90136DCE7434451465A78202042
:101C1C0004F067F95B46E6E78C1A0020443000209C
:101C2C00F45C030028210020D7B9030068BC030032
:101C3C002DE9F74F884C94F87730002B00F0A280F8
:101C4C00864B1B7813F0010F04F101071FD0002500
:101C5C00834E14E06319202093F8662093F86530C6
:101C6C00D21A44FA85F3D2B293F8651039440EF0C7
:101C7C002CF93146202004F034F90135EDB294F8FA
:101C8C007730AB42E6D87749202004F02AF994F853
:101C9C0077300193DFF8D8E1734B00269EF8008073
:101CAC001EF801CF1EF8012C4FF00009ACEB020C12
:101CBC00B8445FFA8CFC4D461868002852D00138A5
:101CCC00C24619E02AB9002D4AD04FF001090C3355
:101CDC00F2E71AF8011BA1F1410BBBF1190F98BFE8
:101CEC002031A2F1410B98BFC9B2BBF1190F9CBFB7
:101CFC002032D2B28A42EAD1AAEB0801614510F82F
:101D0C00012FDFD1002ADED11D46584B1D6094F8FF
:101D1C007B30013384F87B30D5E901230136F6B2F0
:101D2C00002A35D01B786E2B31D03F2B23D04FF0AF
:101D3C000009C8464FF0070B042394F87710AA68E3
:101D4C00B14212F808702BD8AFB1904498F801301A
:101D5C002A2B10D0212F1CBF032384F879300AE0E2
:101D6C001D46B4E7B9F1000F01D1002DCDD10223EE
:101D7C0084F87930002594F87900002869D16868D6
:101D8C0011F0ACFA03B0BDE8F04FFFF779BD134684
:101D9C00019AB24282D8032284F879201D46EAE7E0
:101DAC00732F09D8712F0BD2212F1FD0622F3CD04B
:101DBC00002F4BD1032246E0A7F17502022A45D829
:101DCC00752F29D0762F2AD0732F2BD0722F47F650
:101DDC00FF7A18BF4FF0FF3A012148460193FFF7F5
:101DEC00D9FD5045019B01D984F87930AA68424449
:101DFC0052782A2A94F879201CBF08F101085FFA5E
:101E0C0088F8002AB7D1212F1FBF013609F101092B
:101E1C00F6B25FFA89F990E74FF0FF0ADCE74FF66C
:101E2C00FF7AD9E74FF07F0AD6E794F87B204A4433
:101E3C0054FA82F292F8652022445278222AD5D0A4
:101E4C007B2AD3D0052284F87920CFE784F879B0A7
:101E5C00CCE7FFF79FFE95E728210020A421002066
:101E6C00D7B90300365D0300A46E03004430002094
:101E7C008D2100202DE9F3415E4C5F4F06460D4647
:101E8C004FF0000866B90DF1070128460EF018F85E
:101E9C0078B1262800F0A980012384F879304BE032
:101EAC00002D00F0A28016F8013B8DF80730013DA3
:101EBC00EDB23A789DF807303B700D2A01D10A2B10
:101ECC00E0D00D2B0CD0A3F10A02514251412278E3
:101EDC008846042AD6D8DFE802F0051D263C3100DE
:101EEC000121F4E721B1FFF7A3FE4FF00108C9E788
:101EFC00202B63D0222B07D10223237094F8782057
:101F0C00642A5DD10623C8E77B2B01D10323F4E7B8
:101F1C000123F2E709B9202BF0D194F87730112B7B
:101F2C003FD10323B9E7222BF7D00029E6D00523B4
:101F3C0084F879304FF0010804232370B8F1000FB6
:101F4C00A0D094F8790008B1FFF724FEFFF798FCB5
:101F5C0098E77D2B94F87A0003D1FF28DDD0052378
:101F6C009BE7602B13D8402B13D8392B8CBF002246
:101F7C0030229A1AD2B20F2A10D8FF280BD002EBBB
:101F8C000012FF238DF8072084F87A30B6E7572229
:101F9C00EFE73722EDE784F87A2073E7202BDED1C8
:101FAC0070E70133DBB284F87730234494F878205F
:101FBC0083F8652000232370002994D1884661E7BB
:101FCC002378012B09D19DF80730A3F14101192980
:101FDC009CBF2033DBB28DF80730A3189DF8071097
:101FEC005970013284F878204CE7404602B0BDE8C5
:101FFC00F08100BF28210020A521002049BA89B218
:10200C004840C0F303114140080380B24840C3B2BA
:10201C0080EA431070471AF0C5BC000038B5A0F137
:10202C00430305460A2B31D8DFE803F0060A0A12EF
:10203C001230303030301100BDE8384018F0EAB9B9
:10204C0018F0B4F920B118F0E5F90028FBD138BD2F
:10205C00114C20780028FAD10123443D23700EF056
:10206C009FFB032D0DD8DFE805F00606090240F6AC
:10207C00010017F0FFFA00232370E8E740F6020096
:10208C00F7E77A21054802F005FDF4E78C210348B7
:10209C00BDE8384002F0FEBCA62100201B5E030008
:1020AC00704770477047704770477047704770476C
:1020BC00704770477047002070477047704700208A
:1020CC007047704770470020704770470120704779
:1020DC0001207047704770477047704770477047D2
:1020EC00704700002DE9F047204DDFF8A090DFF895
:1020FC00A0A000245FFA84F840461EF037FBFF28AE
:10210C0006460CD122461A49287803F0FFFE28789F
:10211C0001340DF0DFFE142CECD1BDE8F087154B2B
:10212C0059F82420144947B213EA270338BF534601
:10213C00287803F0EBFE002FE9DA14B1B8F1030FA5
:10214C0008D10E4B0E49287816F0010F18BF19460E
:10215C0003F0DCFE0A2CDAD10A4B0B49287816F076
:10216C00010F18BF194603F0D1FED0E7511E002015
:10217C00355F0300385D03005D5F0300F85E03000C
:10218C000E5F0300205F03002A5F0300A45E0300C0
:10219C002DB803008842F0B54FEA92031AD89BB2CF
:1021AC009E00871904460D4604370434BC4205F1E1
:1021BC0004053AD1C3EB8333314402EB8303013E74
:1021CC00304411FA83F3994220D011F8012B00F816
:1021DC00012FF8E7541E20449BB22144A0EB830648
:1021EC0004460D46043E043CB442A5F104050ED150
:1021FC006FF003045C43C3EB833302EB8303214492
:10220C009BB201342044CB1A994209D1F0BD2F79ED
:10221C002771EF78E770AF78A7706F786770E2E797
:10222C0011F8012900F8012DEEE715F804CC04F89B
:10223C0004CC15F803CC04F803CC15F802CC04F844
:10224C0002CC15F801CC04F801CCAEE70244904264
:10225C0000D1704700F8011BF9E710B501380139BE
:10226C000AB9104606E010F8014F11F8013F9C42E4
:10227C0001D0E01A10BD013A92B2F1E782B2074BDD
:10228C0042B11A80000C064B0ABF4FF6CE221880C2
:10229C001A8070474BF6EF62F3E700BF661B002015
:1022AC00681B0020094B1888020448BF80F06200AC
:1022BC0042001A80064A1388190444BF83F48053E1
:1022CC0083F00B035900118058407047661B0020A7
:1022DC00681B0020034B1870034B1970034B002232
:1022EC001A707047B0210020AF210020B1210020CE
:1022FC002DE9F04F234E337885B007468846002BE6
:10230C003DD0214D4FF6FB7398422C7803D95221C6
:10231C001E4802F0BFFB1E4B4FF0000B9A46327862
:10232C0018785FFA8BF94A4511D9484402A9C0B212
:10233C00019326F0B9FE082241460DEB0200FFF78F
:10234C008CFF0BF1010B019B0028E8D14C462B783C
:10235C00A34207D1631C3278DBB29A422B7004BFC4
:10236C0000232B709AF800301C44E4B241462046FE
:10237C0026F0F4FF18B93946204626F063FE05B066
:10238C00BDE8F08FAF210020B12100205260030086
:10239C00B0210020024B187800F07F00704700BF7E
:1023AC00B2210020034B18780130C0B2187000F035
:1023BC007F007047B22100201FB5030A8DF80E3044
:1023CC000323009303AB8DF80D0000F0BDF905B0AD
:1023DC005DF804FB1FB5030A8DF80F1004218DF86E
:1023EC000E30009103AB8DF80D0000F0ADF905B087
:1023FC005DF804FB2DE9F04389B00746BDF8405069
:10240C009DF84460BDF84C4088460DF1090011461A
:10241C0008229946FFF7BEFE8DF81250012E4FEAA6
:10242C0015258DF811908DF813508DF8146017D078
:10243C00032E1CD1082212990DF11500FFF7AAFEEC
:10244C009DF850308DF81D3016230093BDF85420A4
:10245C0002AB4146384600F077F909B0BDE8F0838D
:10246C008DF81540240A8DF816400F23EDE7012056
:10247C00F3E71FB50C46194602238DF80D20009387
:10248C000A4603AB0146204600F05EF904B010BDCD
:10249C0070B586B0044616460DF10D0008221D4697
:1024AC00FFF778FE0A2300932A4603AB342120461B
:1024BC008DF8156000F048F906B070BD30B585B0E8
:1024CC000024ADF80A20021D92B2012A1D46ADF877
:1024DC000840ADF80610ADF8044003D94FF6FF7272
:1024EC00904207D1064A2B46127801A924F054FFDA
:1024FC0005B030BD014601AA204625F013F8F7E7D8
:10250C006A1B00202DE9F74FFF2A98461DBF464B4A
:10251C001B689C5C002418BF6408B8F1FF0F1EBF39
:10252C00414B1B6813F808700E46814614BF7F0898
:10253C0000271546FFF736FF4FEA19238DF80000E8
:10254C008DF803600621360A68468DF804608DF814
:10255C0001908DF802308DF805401EF08DFEFF289D
:10256C00064604D11824204603B0BDE8F08F4FEA8C
:10257C00440B0BF1070A0AEB4701C9B21EF030FEFF
:10258C000028EFD10446A3451BD10BF106013A46B6
:10259C0001F0FE0130461EF0EAFE5FFA8AF44FF0BD
:1025AC00000A5FFA8AF5AF4223D83346BDF83020D3
:1025BC0006214846FFF782FF044630461EF000FD18
:1025CC00D1E7214628461EF0CDFEA11D0246C9B218
:1025DC0030461EF0CCFE611CC9B228461EF0C2FE6D
:1025EC00E11D0246C9B2304602341EF0C0FEE4B210
:1025FC00C9E76D00EDB2294640461EF0B3FE2146F8
:10260C00024630461EF0B3FE691CC9B240461EF0AD
:10261C00A9FE611C0246C9B2304602341EF0A7FE68
:10262C000AF1010AE4B2BCE7041B00202DE9F041D9
:10263C0088B00F4602A906460FF05AF900287CD044
:10264C00FFF7B0FE8DF810001EF02CFA8DF811007B
:10265C001EF028FA000A8DF81200082239490DF1F3
:10266C001300FFF797FDBDF808308DF81C301B0ADE
:10267C008DF81D300F219DF80D308DF81B6004A8CE
:10268C008DF81E301EF0F8FDFF28044657D04FF091
:10269C0000089DF80D305FFA88F2934208F10108AA
:1026AC001DD801220DF10E0120461EF027FE4FF021
:1026BC0000089DF80E305FFA88F2934208F1010889
:1026CC0024D823463A4620210020FFF7F7FE054682
:1026DC0020461EF075FC284608B0BDE8F0810021AC
:1026EC0030460FF031F90DF107018DF80700054662
:1026FC00012220461EF002FE2D0A01220DF10701D7
:10270C0020468DF807501EF0F9FDC2E70121304636
:10271C000FF01AF90DF107018DF80700054601229B
:10272C0020461EF0EBFD2D0A01220DF1070120467B
:10273C008DF807501EF0E2FDBBE7A325CBE718256B
:10274C00C9E700BFE5410020F8B51C460E46174608
:10275C000546FFF727FE9DF81810207020461EF046
:10276C008BFDFF2804460BD003463A4628463146DB
:10277C00FFF7A4FE054620461EF022FC2846F8BDB5
:10278C001825FBE708B5FDF797FE12F039FEBDE8FA
:10279C0008400AF0E7BE08B5FFF70DF812F060FE2E
:1027AC00BDE8084009F0A0B87047FFF748B8FFF73C
:1027BC004CB830B4BDF80840BDF80C50CDE902451A
:1027CC0030BC08F0F3B838B504460D46FFF756F8A0
:1027DC00294620460AF0E2FE29462046BDE838404C
:1027EC000EF088B8FFF733B8FFF73DB80222062188
:1027FC00012013F0E1BA42220621012013F0DCBAC9
:10280C0041220621012013F0D7BA012206211046DD
:10281C0013F0D2BA40220621012013F0CDBA0022C7
:10282C000621012013F0C8BA03220821012013F05D
:10283C00C3BA02220821012013F0BEBA07220821D4
:10284C00012013F0B9BA06220821012013F0B4BA02
:10285C0004220821012013F0AFBA0522082101201F
:10286C0013F0AABA00220821012013F0A5BA012204
:10287C000821104613F0A0BA01220021092013F000
:10288C009BBA000070B5134C8A00A31822449B78A5
:10289C001D09062D98BF104E03F00F0394BF755DF4
:1028AC00FF25062B05719ABF0C4DEB5CFF23437182
:1028BC00FF3B18BF01238371D37014F82130084CEF
:1028CC004370537883700146204605F06BFD01235D
:1028DC00A36070BDB3210020AA7B0300A37B03007F
:1028EC00002000407FB5224922480022FF23CDE979
:1028FC0001228DF8093003784C6C8D6B03922C40BF
:10290C00E407DBB228D5022B26D88C6C1A4901EBD4
:10291C008301A5B2CE78194906B326041ED521F839
:10292C0013201749012202FA03F30A781343154ABC
:10293C000B701378CBB100231478DC40E407D9B2C8
:10294C000FD501701078012404FA03F34340DBB275
:10295C0001A81370FFF796FF04B070BD21F8135057
:10296C00DFE70133032BE7D1F6E703230370F3E72B
:10297C0000200040BF210020B3210020C2210020F4
:10298C00C1210020C0210020012070470120704788
:10299C000120704710B5084C23681B6858790FF05C
:1029AC00B6FE23681B685879FEF70BFF002012F067
:1029BC00CBFE012010BD00BFF83F00202DE9F84FE1
:1029CC00184E80460D461446994606F1010A0DB97B
:1029DC00BDE8F88F102D4FF00D02494650462F469A
:1029EC0028BF1027FFF7D6FB012333700D48F47373
:1029FC000023B373013426F04BFD0B495FFA87FBC0
:102A0C00E4B2424612F8013B11F8010F434002F8C0
:102A1C00013CA2EB0803DBB25B45F3D3ED1BADB27B
:102A2C009046D4E7CC210020CB2100202DE9F04F9B
:102A3C00374D85B01746BDF83880019003930D22B1
:102A4C000F9B02930E460146681CFFF7A3FB49231C
:102A5C002B7028464FEA1823AB7385F80F8026F0AD
:102A6C0017FD2B7883EA17232B706B784FF0020934
:102A7C007B406B704C46AA464FF0000B21E0C4F132
:102A8C00100CA7EB0B031FFA8CFC9BB2634528BF01
:102A9C0063463046A11B00EB010C5FFA8CF2A0EBF5
:102AAC00060C1FFA8CFC9C451BD31C44E4B29B44C3
:102ABC00102C1E441FFA8BFB03D1284626F0E8FC91
:102ACC000024BB45DBD314B1504626F0E1FCB9F130
:102ADC00010F4FF00004039E47460BD04FF0010945
:102AEC00CAE710F801CB1AF802E08CEA0E0C0AF8CF
:102AFC0002C0D0E7029806490422FFF74BFB019B6A
:102B0C0002982246042105B0BDE8F04FFFF756BFEE
:102B1C00CC210020F7B5099FBDF82040CDE9004736
:102B2C0006461D46FFF782FF2CB133460122214693
:102B3C002846FFF743FF002003B0F0BD2DE9F74313
:102B4C00BDF828700F4C1E46054688469146034634
:102B5C00394630460122FFF731FF33464A4641469B
:102B6C002846CDE90074FFF761FF042221460B983B
:102B7C00FFF773FB002814BF7E20002003B0BDE8D4
:102B8C00F08300BFC82100202DE9F3410A4F0C4609
:102B9C00991815461E468046214438460422FFF7F4
:102BAC00F9FACDE9006763192A4621464046FFF73A
:102BBC00C5FF02B0BDE8F081DC2100200020704789
:102BCC000020704770477047034A00231370034A74
:102BDC001370034A13707047803000207830002047
:102BEC00883000201FB50223009344F20B020DF134
:102BFC000E034FF4407110F0F5F810B10023ADF84E
:102C0C000E30BDF80E0005B05DF804FB1FB50223B5
:102C1C00009344F20C020DF10E034FF4407110F0CE
:102C2C00E1F818B14FF6FF63ADF80E30BDF80E00A9
:102C3C0005B05DF804FB81B14388808883429EBF58
:102C4C001A46034610461B1A0A205843B0FBF1F0F3
:102C5C00B0F5803F01D280B270474FF6FF707047DD
:102C6C001FB50123009300220DF10F034FF44071A7
:102C7C0010F0B8F820B140F23231044801F00AFFEC
:102C8C009DF80F0005B05DF804FB00BFB17B03009D
:102C9C001FB50123009308220DF10F034FF440716F
:102CAC0010F0A0F818B19121034801F0F3FE9DF843
:102CBC000F0005B05DF804FBB17B0300F0B585B0E7
:102CCC000F460546FFF7E4FFB842044638D004AE81
:102CDC00202306F8017D44F2010200934FF4407169
:102CEC003346284610F02DF820B14FF48171174867
:102CFC0001F0D0FE20230093082233464FF440719C
:102D0C00284610F01EF820B140F209110F4801F0CE
:102D1C00C1FE04EB0710C0B2102813D007D801284D
:102D2C000BD002280CD12846FEF74DFD08E02028D8
:102D3C0008D0212801D01228F4E72846FEF744FDDC
:102D4C0005B0F0BD2846FEF73DFDF9E7B17B030069
:102D5C001FB5012200920DF10F034FF4407110F0DA
:102D6C0041F820B14FF45071034801F093FE9DF8E7
:102D7C000F0005B05DF804FBB17B030070B5084C87
:102D8C0000260546A680FFF76BFF25726070054C88
:102D9C002846E680FFF7DCFFA573608070BD00BF9E
:102DAC00E0210020EC2100201FB502230093032218
:102DBC000DF10E034FF4407110F014F820B140F2F5
:102DCC001B41044801F066FEBDF80E0005B05DF82D
:102DDC0004FB00BFB17B03001FB502230093042248
:102DEC000DF10E034FF440710FF0FCFF20B140F2D7
:102DFC002941044801F04EFEBDF80E0005B05DF807
:102E0C0004FB00BFB17B03001FB502230093072214
:102E1C000DF10E034FF440710FF0E4FF18B19F2138
:102E2C00034801F037FEBDF80E0005B05DF804FB59
:102E3C00B17B03002DE9F843914605460C46FFF79C
:102E4C00D1FE07462846FFF7E1FEB9F1000F064612
:102E5C0008BF4FF00109FFF7B7FE02212846FFF724
:102E6C002DFFBC4238BF3C46A4B2B442284628BF12
:102E7C003446FFF7C9FFDFF83C80A8F8000028466D
:102E8C00FFF7C2FFA4B2A8F80200A8F80440A8F803
:102E9C000690A8F8089088F80E50A8F80A70A8F8C0
:102EAC000C6064210248BDE8F8431DF06BBE00BF06
:102EBC0080300020FC210020F0B50E4685B00621A4
:102ECC00074615460FF095F90123044648B30093C5
:102EDC000F220DF10E034FF4407138460FF082FFB4
:102EEC0010B100238DF80E300123009300220DF158
:102EFC000F03062138460FF075FF50B99DF80F40AF
:102F0C003CB9FF2E08D1FF2D06D19DF80E4004F0E0
:102F1C000104204605B0F0BDF307F6D505F0010419
:102F2C00F7E71C46F5E700001FB504AB212223F898
:102F3C00021D00924FF4407102220FF002FF18B1F3
:102F4C00F821034801F0A6FD05B05DF804FB00BFB5
:102F5C00B17B030010B50446C088E8B1013881B2DA
:102F6C00E180A07BFFF7E0FFA2886388E0889342B2
:102F7C000FD0238821899A428BBFD31A9B1A4343C3
:102F8C0043438BBFB3FBF1F3B3FBF1F3D31A9B18A1
:102F9C006380B0FA80F0400910BD00002DE9F843C1
:102FAC001E46314B1B681B685C79804620461546D3
:102FBC000F46FFF755FE002D08BF0125B8F1FF0F96
:102FCC00814601D0FF2F05D1802012F0BDFB0120DE
:102FDC00BDE8F8839DF8202031462046FFF76CFFB2
:102FEC000028F2D0C14538D2A8EB09067E2ECCBF02
:102FFC0000260126FFF7E8FD00212046FFF75EFEC4
:10300C002046FFF7BBFE194B204683F802804FF099
:10301C0000085E7283F8009083F801909D80DD803B
:10302C001C7283F80A80FFF793FE114E3080204605
:10303C00FFF78EFEFE23708029462046B381B780B1
:10304C00F5803581B473A6F80A80FFF76DFF094847
:10305C0064211DF097FD4046B7E7A9EB08067F2ECB
:10306C00D4BF00260126C5E7F83F0020E021002050
:10307C00EC21002088300020F8B50D4611462B4A73
:10308C0012681268567907461A463046FFF714FF45
:10309C0020B9002012F058FB0120F8BDFFF794FD79
:1030AC00002FF6D000213046FFF708FE3046FFF720
:1030BC0065FE3046FFF7D4FD1D4C20703046FFF7FF
:1030CC00CFFD012F607020D13046FFF7C9FD15FAF6
:1030DC0080F080B2FE2884BFFE3880B2A07001233D
:1030EC0063720A23A380E3804FF6FF7101233046FD
:1030FC00A3722672FFF718FF0E4B0F4800246421B1
:10310C00DC801DF03FFD2046C4E7032F0BD1304679
:10311C00FFF7A6FD83B2A8423CBFFE339BB25D1BFA
:10312C00A5700023DCE78020B4E700BFF83F002047
:10313C00E0210020EC210020883000202DE9F04116
:10314C000E461146224A12681268557980461A4674
:10315C002846FFF7B1FE28B9002012F0F5FA01203D
:10316C00BDE8F081FFF730FDB8F1000FF4D0002E70
:10317C00F2D000212846FFF7A1FD2846FFF7FEFDFF
:10318C00144B154C002728469F80FFF7E1FD20804B
:10319C002846FFF7DDFDB8F1010F08BFFE233146CD
:1031AC0060800D480CBFA380A780FFF744FD00266C
:1031BC000146FE23E08020812846A381A573668109
:1031CC00FFF7B2FE054864211DF0DCFC3046C4E775
:1031DC00F83F0020E0210020EC2100208830002066
:1031EC002DE9F04117462E4A1268126855799DF860
:1031FC00182080460C4628461946FFF75DFE20B97C
:10320C0012F0A2FA0120BDE8F0812846FFF728FD54
:10321C00002F08BF0127B8F1FF0F01D18020EFE785
:10322C00032CFBD8DFE804F002323909A0EB0800CC
:10323C0010F0800F0CBF03240124FFF7C5FC002104
:10324C002846FFF73BFD2846FFF798FD2846FFF779
:10325C0007FD144E30702846FFF702FD631E5C42DA
:10326C005C41114B70707472394600242846DC8026
:10327C0086F80280B780F7803572B472FFF754FE7F
:10328C000A4864211DF07EFC2046B9E7A0EB08003B
:10329C0010F0800F18BF0324CFE70124CDE700BF47
:1032AC00F83F0020E0210020EC2100208830002095
:1032BC002DE9F0410E4611461E4A126812685579E6
:1032CC0080461A462846FFF7F7FD20B912F03CFA63
:1032DC000120BDE8F081002E08BF0126B8F1FF0FD8
:1032EC0001D18020F2E7FFF76FFC00212846FFF7A1
:1032FC00E5FC2846FFF742FD0F4B104C00272846F3
:10330C009F80FFF725FD20802846FFF721FDFE2337
:10331C00608031462846A381A4F80480E68026818B
:10332C00A5736781FFF700FE054864211DF02AFC98
:10333C003846CBE7F83F0020E0210020EC210020AC
:10334C00883000202DE9F0411446284A1268126892
:10335C0055799DF8182080460F4628461946FFF7E8
:10336C00ABFD28B9002012F0EFF90120BDE8F08187
:10337C002846FFF775FC002C08BF01240646FFF712
:10338C0023FCB8F1000FEDD000212846FFF796FC86
:10339C002846FFF7F3FC164AB8F1010F1670567069
:1033AC00B3B2B9B219D10B449BB2FE2B84BFFE3B16
:1033BC009BB29370012353720E4B1572A1B2284627
:1033CC0000249180D1809472DC80FFF7ADFD0A4817
:1033DC0064211DF0D7FB2046C5E7BE423CBFFE333F
:1033EC009BB25B1A93700023E5E700BFF83F002007
:1033FC00E0210020EC210020883000202DE9F04154
:10340C001446264A1268126855799DF81820804691
:10341C000F4628461946FFF74FFD28B9002012F039
:10342C0093F90120BDE8F0812846FFF791FC002CB0
:10343C0008BF01240646FFF7C7FBB8F1000FEDD01B
:10344C0000212846FFF73AFC2846FFF797FC144B5F
:10345C0000209880134BB2B2B8F1010F1A805A8039
:10346C0016D13A4492B2FE2A28BFFE22A1B29A800B
:10347C000024FE222846D98019819D735C819A8193
:10348C00FFF752FD084864211DF07CFB2046C6E77F
:10349C00BE4226BFF21BD2B20246E7E7F83F00203D
:1034AC00E0210020EC210020883000202DE9F84399
:1034BC001546244A1268126854799DF82020074654
:1034CC00894620461946FFF7F7FC20B912F03CF963
:1034DC000120BDE8F883002D08BF0125FFF774FB20
:1034EC0001212046FFF7EAFB2046FFF75DFC164E54
:1034FC0030802046FFF758FC4FF6FF687080B7808D
:10350C0020460027F5803581B4737781A6F80C80AE
:10351C00FFF762FC0D4E30802046FFF75DFC29461C
:10352C0070802046A6F80490F5803581B4737781BD
:10353C00A6F80C80FFF7F8FC054864211DF022FB6F
:10354C003846C3E7F83F00200C2200201C22002044
:10355C00783000202DE9F8430E4611462F4A1268A8
:10356C001268557907461A462846FFF7A5FC28B974
:10357C00002012F0E9F80120BDE8F883FFF724FBE6
:10358C000FB9002EF4D001212846FFF797FB2846EF
:10359C00FFF70AFC224C002FB9B2D7BF49424FF6B5
:1035AC00FF63002389B2208060801D48CCBFA380BC
:1035BC00A380FFF740FB4FF000080746E080208116
:1035CC004FF6FF692846A573A4F80A80A4F80C905E
:1035DC00FFF702FC134C4645B1B2DCBF494289B23D
:1035EC00208060800F48CCBFA4F80490A4F804801D
:1035FC00FFF721FB002387420146E0802081638195
:10360C0038BF39464FF6FF632846A573A381FFF7F1
:10361C008BFC642104481DF0B5FAA9E7F83F0020A3
:10362C000C2200201C220020783000202DE9F047CD
:10363C001746374A1268126854799DF820200646BE
:10364C000D4620461946FFF737FC20B912F07CF8DE
:10365C000120BDE8F0872046FFF7A6FB86194CD465
:10366C00B6F57F4F4BDAB6B22046FFF7B5FB4519DE
:10367C0048D4B5F57F4F47DAADB2002F08BF01270C
:10368C00FFF7A2FA01212046FFF718FB2046FFF7AF
:10369C008BFBDFF88880A8F800002046FFF784FB3E
:1036AC004FF00009A8F802004FF6FF6A2046A8F870
:1036BC000460A8F80670A8F8087088F80E40A8F8FE
:1036CC000A90A8F80CA0FFF787FB124E308020461A
:1036DC00FFF782FB394670802046B580F780378132
:1036EC00B473A6F80A90A6F80CA0FFF71DFC0A48C4
:1036FC0064211DF047FA4846A8E70026B4E74FF6C8
:10370C00FF66B1E70025B8E74FF6FF65B5E700BFE8
:10371C00F83F00201C220020783000200C220020D2
:10372C0070B50E4611460A4A12681268547905465D
:10373C001A462046FFF7C0FB18B912F005F8012015
:10374C0070BD204632462946FFF774FB0020F4E793
:10375C00F83F00202DE9F84F1E462E4B1B681B68C6
:10376C005D798346894617469DF828109DF82C20D4
:10377C002846FFF7A1FB08B9002010E02846FFF708
:10378C0031FA80462846FFF741FA8246FFF71CFAC9
:10379C00BBF1000FF0D0B9F1000F05D1852011F06D
:1037AC00D3FF0120BDE8F88F474538BF4746864216
:1037BC0028BF064602212846FFF780FA2846FFF765
:1037CC0023FB154C20802846FFF71EFBBBF1010F95
:1037DC00BFB2B6B2608016D1B24528BFB246A4F8CB
:1037EC0004A049460C48FFF726FA0146E0802081E8
:1037FC002846A5736781A681FFF796FB64210748CD
:10380C001DF0C0F9B8E7B84538BFB846A4F8048035
:10381C00E7E700BFF83F0020FC21002080300020AB
:10382C002DE9F0471C462C4B1B681B685D798246C2
:10383C000F4616469DF824109DF828202846FFF7C1
:10384C003BFB28B9002011F07FFF0120BDE8F08779
:10385C002846FFF7C7F981462846FFF7D7F9002E0F
:10386C0008BF0126FFF7B0F9BAF1000FEAD0BDF896
:10387C002080A14538BFA146404528BF40460221C3
:10388C001FFA80F82846FFF719FA2846FFF7BCFA0A
:10389C00124C20802846FFF7B7FABAF1010F60806E
:1038AC001FFA89F9284613D1FFF7AEFA3844A080E5
:1038BC0031462846E6802681A573A4F80A90A4F820
:1038CC000C80FFF731FB642105481DF05BF9B9E76B
:1038DC00FFF79AFAC01BEAE7F83F0020FC21002012
:1038EC00803000207FB54FF4407104460EF081FC0F
:1038FC0000283BD02046FFF7CBF9022836D10090A8
:10390C000DF10E0344F20D024FF4407120460FF0FE
:10391C0069FA20B12046FFF765F9ADF80E00204694
:10392C00BDF80E60FFF772F90123054600930022E3
:10393C000DF10E03082120460FF054FA10B17F232D
:10394C008DF80E309DF80E30012B0AD9FD2B9FBF40
:10395C00A91B5943FE23B1FBF3F19ABF691A8DB22F
:10396C003546002229462046FFF764FA04B070BDA4
:10397C0008B5084B1B681B680A4601465879FFF7C7
:10398C009BFA08B1FFF720F9002011F0DDFE0120B1
:10399C0008BD00BFF83F00207FB5524CA188257AA6
:1039AC00002933D100265048FFF7D4FA16B9002865
:1039BC0000F09380FFF708F904AB627803F8012D4F
:1039CC0020220092207A00224FF440710FF0B9F9B6
:1039DC0020B140F21311454801F05CF8424B5A8873
:1039EC00987B04AB4FF4407103F8022D2022009217
:1039FC0001220FF0A6F920B140F21D113B4801F055
:103A0C0049F82846FDF7DEFE04B070BD0139A37AF3
:103A1C0089B2A18013B92846FFF786FAA07863789B
:103A2C00834219D02378617A9AB286B2002930D0B9
:103A3C00984234BF06F1FE0131468A1AA188E38808
:103A4C00D2B24A43B2FBF3F2D2B290423CBF06F17F
:103A5C00FE039EB2B21A6270A388002BA2D1A37A85
:103A6C00002B38D02278667A93B281B22EB3904272
:103A7C0034BF01F1FE020A46D31A51FA83F39BB20A
:103A8C00FE2B84BFFE3B9BB22070A3700A23A38045
:103A9C0088E7984284BFFE3292B2931BA288DBB2B5
:103AAC005343E288B3FBF2F356FA83F39BB2FE2B3B
:103ABC0084BFFE3B9BB26370CEE7904284BFFE3363
:103ACC009BB25B1ADAB290423CBF01F1FE0399B291
:103ADC0020708B1AD9E7012665E7642104481DF094
:103AEC0051F869E7E0210020EC210020B17B0300B4
:103AFC00883000207FB51E4C2046A57BFFF72AFAA4
:103B0C0006461C48FFF726FA06B958B3FFF75CF8CF
:103B1C0004AB628823F8022D21220092A07B0322A1
:103B2C004FF440710FF00DF920B140F227111248FB
:103B3C0000F0B0FF0F4BA07B5A8804AB4FF44071E0
:103B4C0023F8042D2122009204220FF0FAF820B160
:103B5C0040F23111084800F09DFF2846FDF734FE75
:103B6C0004B070BD642105481DF00CF8D0E700BF0F
:103B7C000C2200201C220020B17B03007830002096
:103B8C0030B5124C85B02046A57BFFF7E3F9C0B1E8
:103B9C00FFF71AF804AB628823F8022D2122009259
:103BAC00A07B07224FF440710FF0CBF820B140F20C
:103BBC003B11074800F06EFF2846FDF704FE05B0E8
:103BCC0030BD642103481CF0DDFFE3E7FC2100203D
:103BDC00B17B030080300020F0B587B006AB4FF608
:103BEC00FF7223F8042D02260022CDE90162009316
:103BFC0044F2100240234FF4407104460FF0E4F8F5
:103C0C00002842D106AD4FF6FF6325F8023D07228E
:103C1C00CDE90160009540234FF4407120460FF030
:103C2C00D3F890BB2046FEF7DDFF07462046FEF793
:103C3C00EDFFBDF81430BB4227D3834225D8ADF835
:103C4C0016302123CDE90053072240234FF4407155
:103C5C0020460FF056F8C0B906AD302705F8056DB3
:103C6C00402308224FF44071CDE9005720460FF055
:103C7C0048F8CDE90057402344F201024FF440715B
:103C8C0020468DF813600FF03CF807B0F0BD000033
:103C9C002DE9F0471D491E4E1E4F022010F004FB6B
:103CAC00002500F031FBEAB290420AD800F02CFB60
:103CBC00194B1A491B780246BDE8F047022010F058
:103CCC00F3BA3368DFF85C8003EB820102208C7856
:103CDC0033F82230394610F003FBFF2C08D10DF0DD
:103CEC0035FD0F490246022010F0DEFA0135D8E707
:103CFC0024B23368414633F82420022010F0F0FA45
:103D0C0033684FEA84094B449C78E6E75B7C0300FC
:103D1C00601B0020697C0300641B0020827C030074
:103D2C00777C03006D7C03002DE9F341254E264F73
:103D3C00DFF8A48000250DF005FFECB2A0420BD8F3
:103D4C000DF000FF04460DF0FBFE224603461F4912
:103D5C00022010F0A9FA0BE00DF105020DF106019D
:103D6C0020460DF0EBFE30B11949022010F09CFA00
:103D7C0002B0BDE8F081BDF8063022463146022083
:103D8C0010F0AEFA9DF80500FF2808D10DF0DEFC0E
:103D9C0041460246022010F087FA0135CBE70DF1BF
:103DAC0005020DF106010DF0C9FE30B9BDF8062073
:103DBC003946022010F094FAE4E70649022010F08C
:103DCC008FFAD5E7697C03006D7C0300827C0300CD
:103DDC009A7C0300B07C0300777C030070B51A4C0E
:103DEC00267815F077FC194B194A1A49002E08BF92
:103DFC001A460546022010F057FA174A17490220B6
:103E0C0010F052FA62681649521B022010F04CFA5C
:103E1C000A221449022010F047FA3C2212490220CF
:103E2C0010F042FA1E221149022010F03DFA032232
:103E3C000F49022010F038FA01220E490220BDE889
:103E4C00704010F031BA00BF90300020317D03007B
:103E5C002D7D0300347D03003F7D0300437D030073
:103E6C00517D0300777D03009D7D0300C37D03001E
:103E7C00D07D0300EF7D030008B500F03DF8034949
:103E8C008208BDE80840022010F00EBA0B7D03003A
:103E9C0000F032B808B50020FDF7D0FDC2B2012AFF
:103EAC0097BF044B04491A7004490120BDE808402F
:103EBC0010F0FAB96B1B0020B67C0300E17C030008
:103ECC00012810B50FD00B4B5B68022814BF2824B7
:103EDC0002244BB1FA226243934205D29C0808BFDC
:103EEC000124204610BDF024210202481CF04AFE99
:103EFC00F7E700BF903000200020FFF7E1BF00F093
:103F0C00FDB90000034B0449002201201A705A60CD
:103F1C0010F0CAB9903000202B7E0300022809D87B
:103F2C00662B07D1044A13780133DBB213700BB143
:103F3C00FFF7E2BF704700BF2C22002000F092BABE
:103F4C007FB51F4B1F4D00241C701F4B1C702B7812
:103F5C002E467BB11D4E4FF6FC73308800932246E3
:103F6C002346214624F00EFF4FF6FD732C70338050
:103F7C00012015E0164B1B78012B15D100214FF6B3
:103F8C00F87020F05DF90028F2D1FDF71EFC0F4B04
:103F9C001A884FF6FD739A42EAD00123337002203F
:103FAC00FFF78EFF04B070BD0DF10F000DF0BEFDDC
:103FBC000028DDD19DF80F30012BD9D1DEE700BFF1
:103FCC002D2200202E2200202C2200206C1B0020F1
:103FDC006B1B00205730C0B2012815D80B4A137840
:103FEC000133DBB2022B13700ED9094B18884FF634
:103FFC00FD72904202BF1980064B00224FF0000068
:10400C0008BF1A70FFF75CBF704700BF2D2200205D
:10401C006C1B00202E220020912808B50AD11DF01F
:10402C00C3FC70B90749012010F03EF9BDE8084007
:10403C0000F040B8902804D10120BDE80840FFF7FB
:10404C003FBF08BD0E7E030030B50B4B1B783BB158
:10405C000A4B19780A4B1C680022D3B28B4201D34D
:10406C00FF2306E0013204EB820535F8045C85423F
:10407C00F3D1184630BD00BF641B00202F22002056
:10408C00601B0020FF2807D0084B094A1B681278D8
:10409C0003EB8202934201D100207047043313F8E2
:1040AC00021C8142F6D10120704700BF601B00202A
:1040BC002F220020064B00211970064BFF221A708C
:1040CC00054B1A78054B92001868FEF7BFB800BF75
:1040DC002F2200206E1B0020641B0020601B002080
:1040EC002DE9F041224B1E7807468846002E3DD024
:1040FC00FFF7AAFF1F4C204B25781B68FF2805D122
:10410C001E4A1078864228D9411C1170A84216D03C
:10411C001A490E781A4603EB860696420AD01146C7
:10412C00043212F801CC8445F7D102B203EB8202BF
:10413C00D278CA7002B203EB82022070D57002B240
:10414C0003EB820123F82270FF2290458A7002D083
:10415C0003EB88039870BDE8F081284602B203EBAC
:10416C008202D278FF2AD1D01046F7E7FF20F2E77F
:10417C00641B00206E1B0020601B00202F220020DF
:10418C0030B5094B1A78094B4FF6FF7419680023A8
:10419C00D8B2824206D9013301EB830535F8045CB1
:1041AC00A542F5D130BD00BF2F220020601B00209E
:1041BC002DE9F84FFFF748FFFF28044664D0334D34
:1041CC00334E2A68DFF8CC8003B24FF6FF7122F829
:1041DC00231037463278A24202D10020BDE8F88F76
:1041EC00296898F800C023B29B00C818A44590F821
:1041FC0003E00ED08C4601EB820AD445E14605D093
:10420C000CF1040C1CF801BCA345F6D189F803E0B1
:10421C0001E088F800E0013A121B0433D2B21944D1
:10422C009200FDF7B7FF397898F800300139C9B220
:10423C00FF2B397005D0A34224BF03F1FF3388F85C
:10424C0000302B6800204FF6FF7CC2B28A4203D3A9
:10425C00FFF796FF0446BDE79A78A2420CD1A3F86B
:10426C0000C0DA78FF2A04D0A24224BF02F1FF3248
:10427C00DA7001300433E8E7FF2AF2D0A24224BFFF
:10428C0002F1FF329A70ECE70320A7E7601B0020D5
:10429C002F2200206E1B0020F8B5164B1B7804460D
:1042AC0033B30846FFF7D0FEFF28054620D0204642
:1042BC00FFF7CAFEFFF7E6FED0B92046FF21FFF755
:1042CC000FFFFF28044613D00B4F01463B682AB260
:1042DC0003EB8200867833F82200FFF701FFA0423F
:1042EC0008BFFF24FF2E29463546EFD12046F8BDE6
:1042FC00FF24FBE7641B0020601B0020014B002205
:10430C001A7070472F220020014B1878704700BF9D
:10431C002F220020014B1878704700BF2F2200205D
:10432C00014B1878704700BF641B00200BB1FFF7DE
:10433C003FBF0AB9FFF7B0BFFF21FFF7D1BE0000A6
:10434C00F8B51F46064615469DF81840FDF7D0FFF8
:10435C000D4B1B785BB10B2D09D83046FF21FFF7B5
:10436C00BFFE04EB45050646EDB2AC4200D1F8BDEC
:10437C00214638461DF049F83146FFF7B1FE0234AC
:10438C000646E4B2F1E700BF641B00202DE9F047BC
:10439C000F46FFF759FEFF28044603D10025284697
:1043AC00BDE8F087234908682346002288461BB2E3
:1043BC0000EB8303D6B29B78FF2B02F10102F6D1FE
:1043CC0006F1FF3A5FFA8AFABAF10A0FE6D87500DD
:1043DC000235FF2FEDB2E2D0174B1B6813F8079094
:1043EC0009EB0501C9B238461CF0FAFE0028D5D1FC
:1043FC003246494638461CF0BAFF09F1010109F171
:10440C0002065246C9B23846F6B21CF0B0FFD8F8D4
:10441C00003024B203EB8404A478FF2CBFD022B26A
:10442C00314633F82220384602361CF0FEFFF6B235
:10443C00EDE700BF601B0020041B0020FF2810B517
:10444C000BD0074B00B21B6803EB800433F8203011
:10445C000B80A3781370002010BD0320FCE700BF75
:10446C00601B002008B5FFF7EFFDFF2803460CD0BA
:10447C00074A126802201BB202EB83039B78FF2BC6
:10448C0000D108BD0230C0B2F5E70020F9E700BF4B
:10449C00601B0020F7B50A4E0A4F0B4D002456F84E
:1044AC00243003B93B6835F81420009207492246A2
:1044BC00012001340FF0F8FE292CF0D103B0F0BD2F
:1044CC00701B0020181C00200C310020507E0300B3
:1044DC0008B5FFF7DFFFBDE8084000F0EFB80000BB
:1044EC0007B50020FDF7AAFAC2B2282A0DD8084B4E
:1044FC0053F822300BB9074B1B68074931F81210DF
:10450C000091012005490FF0CFFE03B05DF804FBCC
:10451C00701B0020181C00200C310020507E030062
:10452C00FFF7B8BF7047000038B50020FDF786FADA
:10453C0004460120FDF782FA0549054601200FF0DB
:10454C00B3FEA9B2E0B2BDE8384000F0CFB800BF6E
:10455C005B7E0300F7B50A4E0A4F0B4D002456F84C
:10456C00243003B93B6835F81420009207492246E1
:10457C00012001340FF098FE292CF0D103B0F0BDCE
:10458C00701B0020181C0020BA300020507E030045
:10459C0073B502AB03E906000446019D1BF0D6FF80
:1045AC00064620461BF0E0FF9DF800008EB1202C43
:1045BC000FD82B78012B36D803EB431338492344FF
:1045CC004FF6FF7531F81320AA4202D0013221F8C0
:1045DC001320344B344A33F8145032F814604FF62D
:1045EC00FF718D421CBF691C23F8141004F0FD01EF
:1045FC00092930D1998A928A0144914235DA9982FB
:10460C0033F81430B34204D3B54202D22046FDF73E
:10461C00DDF8264B0025EA5CA24228D00135112D8D
:10462C00F9D102B070BD022BD3D11D4B33F814203D
:10463C004FF6FF718A421CBF013223F8142004F19B
:10464C0021014FF6FF7533F81120AA421CBF01322D
:10465C0023F81120BDE71D2CD2D1598F0144508F66
:10466C00814201DA5987CBE7928A9A82C8E717F020
:10467C003CFC0F4B1B788342044603D8E0210D48C9
:10468C0000F008FA04EB04140B4A2C444FF6FF71AB
:10469C0032F814308B42C4D0013322F81430C0E706
:1046AC005E3100200C310020BA300020D98103008B
:1046BC00451B00204381030098300020522200212A
:1046CC000148FDF7C3BD00BF0C3100205222FF2171
:1046DC000148FDF7BBBD00BFBA30002008B5FFF79D
:1046EC00EDFFBDE80840FFF7F1BF0000014B23F8D8
:1046FC0010107047BA30002010B5104C1049A16151
:10470C00032321660F491022C4E904330E4BE361E5
:10471C00C4E9191200230D49A362E01D6362E36230
:10472C002367E3666367226231F05DF9084920462E
:10473C0031F059F92023A37110BD00BF00340020C3
:10474C00EA8103003022002040220020F381030084
:10475C00F78103002DE9F84F1F4B16461A78814656
:10476C008A4698460AB9FFF7C7FF182707FB09873F
:10477C003D6FD7F86CB05D452BD9BC6E796E641B60
:10478C00B44228BF344629445046224631F018F929
:10479C00BB6E2544A244361BAB4208BF0025ABEBD5
:1047AC00050B5E4528BF5E4656B1182303FB0983F3
:1047BC003246596E5046294431F002F9344435449E
:1047CC0024B1182303FB0988C8F870502046BDE8B3
:1047DC00F88F0024E3E700BF00340020F8B504464E
:1047EC000E46174604F063FA3A4605463146204613
:1047FC00FFF7B0FF0446284604F05FFA2046F8BDE8
:10480C002DE9F843124D1E462B78814688461746F3
:10481C000BB9FFF771FF04F04AFA696900244FF0F5
:10482C00180C0CFB04535A6E2AB10134A142F8DC6B
:10483C004FF0FF3407E0A142FADDC3E918989F66F8
:10484C001A67DA665E6704F038FA2046BDE8F8832A
:10485C0000340020FFF750BF012270B51146042030
:10486C0004F05EF81A4B1B4D1A681B4842F001020B
:10487C001A60DA684FF0604442F08072DA60174BCD
:10488C00C4F8B03F00260223C4F8006EC4F8806E52
:10489C00C5F8F03003F050FF00F5D520104B114A4D
:1048AC0000F2FC40B0FBF3F00F4B01382861C4F868
:1048BC00406E1A600D4BC4F8803E4FF48073C5F8FF
:1048CC000433D4F8003E43F48073C4F8003E70BD4A
:1048DC00F0ED00E0000004E006000E0055CEACC583
:1048EC00F8590D00FF030040001000E00D0001001E
:1048FC0010B50121104803F03FFE104B01241C6041
:10490C00002004F037FE234604220221052004F087
:10491C0089FE204613F09EFAFFF79EFF13F09EFAD5
:10492C00FFF798FF2346402205490648FFF768FF2A
:10493C00054B1860C00F10BD00350A0010881442DA
:10494C0050220020FE8103001C1C0020024B186822
:10495C00003018BF01207047F0ED00E0054A4170AF
:10496C00D12303701378C370090A8170591C11701C
:10497C0004207047902200202DE9F74F354E336804
:10498C001C5C032C074663D914F0ABFEDFF8C8801F
:10499C0001900534E4B24FF6FF7A0025C146D8F8F1
:1049AC0000204AB1AC4207D914F09BFE019BC01AFF
:1049BC0080B2B0F5FA7F05D9601B18BF012003B097
:1049CC00BDE8F08F002D3DD0012D1DD13268D55D95
:1049DC004FF0020B4FF06042D2F8801ECB0711D57E
:1049EC001146D9F80C0040F08070C9F80C00D1F8D1
:1049FC00000E40F48070C1F8000E086A0028F0D058
:104A0C0082F820505D46CAE7E21E05F1010B954283
:104A1C005FFA8BFB02D15FFA8AF5DBE7A21E9542A7
:104A2C0002D1CAF30725D5E7621E95420ED0A91E06
:104A3C00C9B238461CF096FC51460546FDF7DEFA25
:104A4C008246C7E75B254FF0010BC3E75D25C1E745
:104A5C000120B4E7041B0020F0ED00E010B50B4B77
:104A6C0090B0402269461868FFF7B8FE58B1C1B241
:104A7C0068461CF001FC04460146122015F02EFE7F
:104A8C0020461CF09DFA10B010BD00BF1C1C00206D
:104A9C0042DE704738B504460D4618F051F800F068
:104AAC00CBFD04F0FCF82946204615F0E3FD2B461F
:104ABC002246054901200BF013FA29462046BDE891
:104ACC003840FFF7E5BF00BF0E8203006D4B2DE9A8
:104ADC00F0416D4C5A68A2655A6AE2656B4AD2F88D
:104AEC0000122166D2F8042262669A6AA266DA6A19
:104AFC00E2661A6B22675A6B6267DB6BA26BA36769
:104B0C00D4E90F5312F0040F18BF1D4614F0D6FD54
:104B1C00002285420346606522655CD35C4A95425F
:104B2C0059D8AA696264E969A164B4F85810C1F350
:104B3C000801062953D157498A4250D356498A4213
:104B4C004DD211884DF64262914248D16268C4F848
:104B5C009420A268C4F8982040F201704F4A504942
:104B6C00934238BF13460A468B423BD3D31AE364B5
:104B7C000023C4E91F33C4E92133C4E92333484E6D
:104B8C00444FDFF814C1AE4232D8D4E91FC7D4E980
:104B9C002165D4E923124FF0000E013BDBB2FF2B51
:104BAC0041D1BEF1000F05D0C4E91FC7C4E921658E
:104BBC00C4E92312B4F85830C3F30803DA1E0F2AE1
:104BCC0055D8DFE802F03A5B474A545454545451D8
:104BDC0054545454543E0022C4E911221D464FF43F
:104BEC002060BBE71E68B6F1CD3FBFD10433BBE7F5
:104BFC0056F8042DBA42C6D36245C4D2D107C2D5E9
:104C0C00002104EB010EDEF87CE09645BBD00431AC
:104C1C001829F6D10BB9052301E0013BDBB204EBFB
:104C2C008301CA67AFE7E0464FF0010EBC4637463A
:104C3C002E460D4611464246AFE740F60120BDE830
:104C4C00F081184BDB6913F0020F40F2025318BFCE
:104C5C001846F4E740F60320F1E740F60423B0F5DC
:104C6C00206F08BF1846EAE740F60520E7E7013B4E
:104C7C0040F60722412B98BF1046E0E740F6022091
:104C8C00DDE700BF00ED00E00000002000E100E0E7
:104C9C00601A002024030000085A03009C00002026
:104CAC00801A002000200540062804D007280CBFDD
:104CBC000120022070470020704700002DE9F043CE
:104CCC0085B04FF48073ADF80C3001F0CBFB0121B3
:104CDC001548DFF85C80DFF85C9003F04DFC012197
:104CEC00124803F049FC0024012703AB0122E35CCA
:104CFC0018F8336008EBC30330465D68002329467F
:104D0C0004F090FC4946E8B201F0BAFBCDE900771B
:104D1C0001232A462946304604F038FC14B105B06C
:104D2C00BDE8F0830124E0E74041050000350A00AE
:104D3C0024820300C94D000008B5FFF7B5FF022817
:104D4C0016BF024B0020185C08BD00BF912200204A
:104D5C0008B5FFF7A9FF02281CBF014B195408BD69
:104D6C009122002008B5FFF79FFF022805D0034AC7
:104D7C00135CB3FA83F35B09135408BD9122002032
:104D8C0008B5FFF791FF022811D00A4A12F830102B
:104D9C0030234B4302EBC00207491944536803EB21
:104DAC00C1039B001868B0FA80F0400908BD0020D0
:104DBC00FCE700BF248203001CA0104270B504461F
:104DCC00FFF7DEFF0026054601E000261D462046C3
:104DDC00FFF7D6FFA8420346F7D10136052EF2D1D4
:104DEC002046FFF7A9FFA8420BD029462046FFF723
:104DFC00AFFF2046FFF7A0FF014620460CF0FCFB5E
:104E0C0070BD2046FFF7AEFF2046FFF795FF014629
:104E1C0020460CF0F1FB2046FFF7A4FFE9E7000069
:104E2C0010B504F077FD044604F06EFD002201215C
:104E3C0001FA02F3234014D01B4B33F812301B4AF7
:104E4C00062B13D040F207218B420DD1184919487B
:104E5C000C68844208D14CF23C334B800B88138095
:104E6C0012E00132112AE3D1104AF8E7104B5888AE
:104E7C004FF20F01884214D11988B1F5406F10D24E
:104E8C0011804CF23C325A80084B1A8840F2017364
:104E9C009A4201BF084A094BD2E90001C3E900015B
:104EAC0010BD4FF4C061EBE7348203009C2200205C
:104EBC000000002007020FF0940000209422002034
:104ECC00014B1888000A70479C220020014B18885F
:104EDC00704700BF9C2200202DE9F04F4D4CA36B76
:104EEC00D4F850B0D4F840A05A074FBF0027D4F8DC
:104EFC004CB0D4F85480D4F83CA05ABF464FDFF8DD
:104F0C004091DFF84091454A48BFB84613F0080F6E
:104F1C00434B18BF1A46B7EB08061CBF7308642135
:104F2C0087B01FBF01FB0B33B3FBF6F39BB20593AA
:104F3C003C49CDF800804B46CDE9017A08BF059677
:104F4C00054600F0E3FFB3B2CDE900931FFA8BF2F4
:104F5C00059B3549284600F0D9FFA36B5B070AD4A3
:104F6C009C3E5E4507D1626D304B9A4203D230496C
:104F7C00284600F0CBFFBA4501D8C24504D24A46B8
:104F8C002C49284600F0C2FF28460AF0A3FF236EE6
:104F9C000BB9636EBBB32849DFF8AC80DFF8AC907B
:104FAC00284600F09EFF00260127226E07FA06F322
:104FBC00134207D058F8262013781BB149462846CF
:104FCC0000F08FFF0136202EEFD1DFF87C80DFF868
:104FDC007C9000260127626E07FA06F3134209D073
:104FEC0008EB8603D3F8802013781BB1494628467A
:104FFC0000F077FF0136122EEDD1284607B0BDE840
:10500C00F04F00F07DBF0D49284607B0BDE8F04FCA
:10501C0000F07CBF00000020801A002046850300B1
:10502C003F8503004E8503007C8503009C00002017
:10503C00B5850300E1850300FF8503002E86030080
:10504C003A8503000CA1030044860300B9B70300A2
:10505C002DE9F8430446FFF739FF40F60123984247
:10506C0039D010D840F2025398421DD040F201734F
:10507C00984224D040F20153984213D165492046FE
:10508C0000F044FF22E040F6032398426CD03DD35D
:10509C0040F60423984200F09C8040F60523984289
:1050AC0000F0B580BDE8F8835B49204600F02EFF88
:1050BC005A4B5B495A6C204600F028FF06E0574AD1
:1050CC005849D2E92523204600F020FF2046BDE8B0
:1050DC00F8430AF0FFBE514D5349204600F016FF2D
:1050EC0095F86C309F0703D55049204600F00EFF11
:1050FC0095F86F305E0603D54D49204600F006FF4B
:10510C0095F96F30002BE1DA4A49B8E7434D4A492B
:10511C00204600F0FBFE95F86830980704D06A6CC6
:10512C003F49204600F0F2FE95F96830002B04DA76
:10513C006A6F4249204600F0E9FEDFF80C81DFF887
:10514C00189100260127AA6E07FA06F3134207D01E
:10515C0058F8262013781BB14946204600F0D6FE9D
:10516C000136082EEFD1B1E72C4D3549204600F021
:10517C00CDFE2B496A6C204600F0C8FE95F86930CC
:10518C00590703D52F49204600F0C0FE95F9693028
:10519C00002B04DA6A6F2949204600F0B7FE2A4F2B
:1051AC00DFF8B4800826AB6EF340DA0707D557F862
:1051BC00262013781BB14146204600F0A7FE01368D
:1051CC00102EF0D195F86830002B7FF47FAF1F497B
:1051DC0055E7124D1E491C4FDFF87C80204600F02D
:1051EC0095FE6A6C0E49204600F090FE1026AB6EC0
:1051FC00F340DB0707D557F8262013781BB141463F
:10520C00204600F083FE01361A2EF0D15EE71149DC
:10521C004BE700BFC9820300068303000000002097
:10522C00368303004F8303006983030081830300EB
:10523C00BB830300EE8303002A8403004F84030026
:10524C00738403008A84030058820300D084030013
:10525C0000850300198503006B8403002DE9F84FCA
:10526C00164C174FDFF86080DFF860A0064600256B
:10527C0023785FFA85FB0BB9BDE8F88F57F8043B30
:10528C0010492246304600F02CFE227804F1010928
:10529C0082B9627882B10BF0030103290CBF41463D
:1052AC005146304600F01DFE30460AF013FE013523
:1052BC004C46DDE74C46E8E74146F2E70C87030035
:1052CC0004000020C0820300365D03005DA60300CD
:1052DC0000F00CB800F00AB800F008B800F006B8FE
:1052EC0000F004B800F002B800F000B872B61EF07E
:1052FC00080F09D01EF0040F0DD0DFF850E0AEE817
:10530C00FF1F6FF002000CE0DFF840E0AEE8FF1F7B
:10531C006FF00E0005E0DFF834E0AEE8FF1F6FF031
:10532C0006006946EFF309828EE8070086460848B6
:10533C00084C854501D3A54501D384F30888FFF7B4
:10534C00C5FB84F3088814F095F9000004000020D4
:10535C0060110020801A0020FFF7C6BF10B5012194
:10536C000A4803F009F90121094803F005F9042260
:10537C0011460023052004F055F9052100230422D1
:10538C000846BDE8104004F04DB900BF404105008F
:10539C0000350A00064B03EBC00213F8303051689D
:1053AC0001228A4030215943024B5A50704700BFAA
:1053BC009C8D03000CA00046064B03EBC00213F8B7
:1053CC003030516801228A4030215943024B5A50E7
:1053DC00704700BF9C8D03000CA00044074A12F8D4
:1053EC00301002EBC002536801229A4030234B4329
:1053FC0003F1804303F520439A6170479C8D0300B1
:10540C007047000037B57F2A14BF154600254BF2B4
:10541C0034629142044619D17F2241F2020168465E
:10542C000823FFF7EFFF082224496846FCF715FF15
:10543C0030B908237F2241F2F0116846FFF7E2FFF2
:10544C00082269462046FCF7A5FE09E041F2F0125D
:10545C0091421AD11A490A6C496C01381D1F0BB9BB
:10546C0003B030BD013B9D4200F8012F4FEA1222E0
:10547C00F5D1033400229A42F2D00132042A04F806
:10548C00011F4FEA1121F6D1EAE701F47042B2F59F
:10549C00805F07D1C1F30B0404F17E649AB203FB65
:1054AC000541D0E701F46042B2F5005FD8D1C1F3F9
:1054BC000B0404F17E6404F58044EFE7488E03008E
:1054CC00B081E00F70B5054616461C46DBB14BF2B9
:1054DC003463994210D1082C28BF08247F2241F252
:1054EC0002012346FFF78EFFA2B207492846FCF7BC
:1054FC00B4FE40B941F2F011234632462846BDE8CD
:10550C007040FFF77FBF70BD488E03002DE9F84354
:10551C001646C20704460F4603D594212748FFF7C9
:10552C00B9FAF30703D595212448FFF7B3FA04F42D
:10553C007043B3F5805F20D1C4F30B0404F17E6497
:10554C00731E1F4A23449342254603D99A211B48B4
:10555C00FFF7A0FADFF8649005EB0608454521D16A
:10556C0072083946204614F011F820B34FF48871B4
:10557C001248BDE8F843FFF78DBA04F46043B3F565
:10558C00005F07D1C4F30B0404F17E6404F580447E
:10559C002546DFE7A1210948FFF77CFA6FF00F05DC
:1055AC000024D7E715F8013BFF2BD7D0AB21484699
:1055BC00FFF770FAD2E7BDE8F88300BFBC8D03009B
:1055CC00FF07E00FFFF784BE1FB501211648174CEB
:1055DC0002F0D2FF01221146104603F0A1F904217A
:1055EC00072004F081F9124A1068516801AB03C31B
:1055FC009068186001238DF804300D238DF80C3061
:10560C0001A9032320468DF80D3004F070FB094BE3
:10561C0004220221C3F8802161621A60A36A0B4341
:10562C00A36204B010BD00BF00250A000020054095
:10563C00508E030000E100E0014804F04CBB00BFB9
:10564C0000200540A52803D10021024804F02FBBFF
:10565C00704700BF00200540024B186800F00100A5
:10566C00704700BF00200540024A9368002BFCD114
:10567C00704700BF00200540002070470020704795
:10568C007047000013B572B603F009FB764B7749EF
:10569C005B698B6000230B76E0204B768B76402386
:1056AC00C876087748778877CB77714B802260244F
:1056BC0081F8202081F8210081F8220081F8232034
:1056CC0083F8002383F80143202483F8024383F8F2
:1056DC00034383F8042383F8052383F8062383F814
:1056EC00072383F8082383F8092383F80A2383F814
:1056FC000B2383F80C2383F80D2383F80E2383F8F4
:10570C000F2383F8102383F8112383F8122383F8D3
:10571C00132383F8142383F8152383F8162383F8B3
:10572C00172383F8182383F8192383F81A2383F893
:10573C001B2383F81C2383F81D2383F81E2383F873
:10574C001F2383F8202383F8212383F8224383F833
:10575C00232383F8242383F8252383F8262383F833
:10576C00272383F8282383F8292383F82A2383F813
:10577C002B2383F82C2383F82D2383F82E2383F8F3
:10578C002F2383F8302383F8312383F83203CB683B
:10579C0023F4E0631B041B0C43F0BF6343F401339D
:1057AC00CB604B6943F400734B614B6943F01003BE
:1057BC004B614FF4E0234B6200F012F9FFF730FB22
:1057CC00EFF308832B4A043B4FF0CD3193421DD2AB
:1057DC00294A2A4892B20021FCF738FD62B6284BC0
:1057EC0001225A64274BDB6C1B0E12D12649274829
:1057FC004AF6E8520A60026842F0040202600B604A
:10580C00234A136843F40053136004E01960043B0B
:10581C00DCE7012BF4D01F4A136A23F4441343F43E
:10582C0088131362A2F580420124136843F4807339
:10583C001360194B1C6105F0CDFF00F033FF01F034
:10584C009BF9002368460093ADF804308DF80340B3
:10585C0003F06EFC00F082F913F050FF0F4828F0B3
:10586C004FF802B010BD00BF0000000000ED00E0DA
:10587C0000E100E02011002048100000A0000020F2
:10588C0000000E40B081E00F90310E4098310E4078
:10589C0064310E4000400E4000300E4034C803000E
:1058AC0040F2016013F0E6BEFDF78CB908B500219B
:1058BC000B20FDF785F9BDE80840FDF784B90320FE
:1058CC0000F0C8B908B5FFF7FBFA044B0B289ABFD8
:1058DC0000B203EB8000184608BD00BFA88F030080
:1058EC0008B5FFF7F3FA044BC0F30F22C0B253F81C
:1058FC00223003EB800008BD6C8F030010B5FFF75E
:10590C00DFFA0446FFF7E2FAC0B228B9012C24D121
:10591C0064F07F04E4B216E0072CF9D801A353F825
:10592C0024F000BF535900001D59000051590000CC
:10593C0057590000575900005B5900005F5900008F
:10594C00635900000924204610BD0224FBE7032400
:10595C00F9E70B24F7E70624F5E70446F3E700BF65
:10596C00BFF34F8FBFF36F8F054A536A23F4803315
:10597C005362D2F8943023F00103C2F8943070478C
:10598C0000ED00E0054B01229A60022100221A6111
:10599C00996004211A6199601A61704790ED00E0DA
:1059AC00084B094930B5094C094D1A46581920586D
:1059BC0043F8040B8B42F9D1064B1360064B074A94
:1059CC001A6030BD9CED00E0BCED00E0D88F030008
:1059DC006412FF1F14000020A0ED00E00900080075
:1059EC0010B503F064F90446FFF7BAFFFFF7D8FFD0
:1059FC00FFF7C8FFBFF34F8FBFF36F8F064B052226
:105A0C005A60064A536A43F4803320465362BDE819
:105A1C00104003F052B900BF90ED00E000ED00E043
:105A2C0007282DE9F84F04460F462DD0082808BF4B
:105A3C00022421460120FBF722FFFFF70DFE651E15
:105A4C00D5F1000848EB050800B3012C1ED1A520A8
:105A5C00FFF7F8FD2646EFF31089012383F3108836
:105A6C00EFF3118A4FF0000B8BF31188354D404644
:105A7C000AF0C8FC631EC5F800B0042B59D8DFE847
:105A8C0003F00E4D4D5155000324D2E7FFF7E4FD12
:105A9C0018B1FFF7E9FD0026DDE70646DBE72A4AE9
:105AAC00136923F00403136130BF284AD2F8283459
:105ABC00D2F81C2413409BB2254A2B60D2F800115B
:105ACC00480502D51168490506D4D2F800114803DF
:105ADC0005D51268510302D543F480332B601C4B5F
:105AEC00D3F80021520006D51B685B0042BF2B681F
:105AFC0043F400332B601EB10121164804F0D7F893
:105B0C0040460AF095FCCFB18AF3118889F31088CE
:105B1C0021460020BDE8F84FFBF7B1BE012003F091
:105B2C0057FAC2E7012003F071FABEE703F09EFAC0
:105B3C00BBE784210848FEF7ADFFB6E787F3108872
:105B4C00E6E700BFA422002000ED00E000A000402A
:105B5C0000E100E00020054000900300044AD2F868
:105B6C001C341B0C1B04C2F82434024A136070470B
:105B7C0000A00040A02200200021FFF751BFFFF73A
:105B8C00FBBF000037B5114C0123002023700AF035
:105B9C0007FE254640B100200AF002FE20B100238A
:105BAC002370492003B030BD2B7833B102237F2200
:105BBC0000210DF1060014F07FFABDF8063000202C
:105BCC00B3F57F7F1CBF28700720EBE7A9220020CC
:105BDC00FF2910B40C4607D80749097841B1E1B246
:105BEC005DF8044B14F068BA5DF8044BFFF76ABC1F
:105BFC005DF8044B704700BFA9220020FF282DE957
:105C0C00F0410746884615461E4616D80E4B1B78A3
:105C1C008BB10E4C237823B14FF4EF710C48FEF787
